S017000077656C64696E675F636F6E74726F6C2E73726563C3
S11300000C9434000C9446000C9446000C94460066
S11300100C9446000C9446000C9446000C94460044
S11300200C9446000C9446000C9446000C94460034
S11300300C9446000C9446000C9446000C94460024
S11300400C9446000C9446000C9446000C94460014
S11300500C9446000C94E4000C9446000C94460066
S11300600C9446000C94460011241FBECFEFD4E03C
S1130070DEBFCDBF21E0A0E0B1E001C01D92A530FC
S1130080B207E1F70E94CC000C942A010C94000002
S1130090559A40918800509189002BB181E090E0FD
S11300A002C0880F991F4A95E2F7809590958223A4
S11300B08BB9229A2A983B98439A87B1847087B95E
S11300C0419A089584B5806A84BD84B5816084BDF5
S11300D085B5836085BD16BC17BC18BC0895ECE7D4
S11300E0F0E0808186648083EAE7F0E08081886CB8
S11300F08083808187608083089586B186B1089566
S1130100809102018230C9F028F4882341F08130C3
S113011069F00895833009F1843079F108951092DB
S11301208900109288002A982B98089510928900CB
S1130130109288002A982B9A0895109289001092A0
S113014088002B982A9A83E08093020180ED97E03F
S1130150909304018093030108952A9A80910301E6
S1130160909104010A979093040180930301892BD1
S113017091F484E0809302010895809100019091AC
S1130180010196958795969587959093890080931C
S113019088002A9A2B9A0895109202010E9448001E
S11301A00E9462000E946F001092890010928800E1
S11301B078948FE39CE90197F1F700C000000E9456
S11301C07D000E948000F5CF1F920F920FB60F9210
S11301D011242F933F938F939F93EF93FF938091D9
S11301E07C0085FD0FC08091780090E09093010120
S11301F08093000120917900922B909301018093C8
S1130200000118C080917800829586958695837048
S113021090E090930101809300012091790030E0F7
S1130220220F331F220F331F822B932B9093010134
S113023080930001EAE7F0E0808180648083FF918D
S1130240EF919F918F913F912F910F900FBE0F903F
S10B02501F901895F894FFCFEC
S9030000FC
